:020000040040BA
:1000000048064020D1014000CD014000CD01400014
:10001000CD014000CD014000CD01400000000000B6
:10002000000000000000000000000000CD014000C2
:10003000CD01400000000000CD014000CD01400096
:10004000CD014000CD014000CD014000CD01400078
:10005000CD014000CD014000CD014000CD01400068
:10006000CD01400000000000CD014000CD01400066
:10007000CD014000CD014000CD014000CD01400048
:10008000CD014000CD014000CD014000CD01400038
:10009000CD014000CD014000CD014000CD01400028
:1000A000CD014000CD014000CD014000CD01400018
:1000B000CD014000CD014000CD0140002D054000A4
:1000C000CD014000CD014000CD014000CD014000F8
:1000D000CD014000CD014000CD014000CD014000E8
:1000E000CD014000CD014000CD014000CD014000D8
:1000F000CD014000CD014000CD014000CD014000C8
:10010000CD014000CD014000CD014000CD014000B7
:10011000CD014000CD0140000000000000000000C3
:10012000CD014000CD014000CD014000CD01400097
:10013000CD014000CD014000CD014000CD01400087
:100140000000000000000000CD014000CD01400093
:10015000CD01400010B5054C237833B9044B13B1E1
:100160000448AFF300800123237010BD000040203D
:1001700000000000200840000C4B43B10C480D4922
:1001800010B5AFF300800C48036823B910BD0A48CE
:10019000036833B97047094B002BF7D0BDE8104016
:1001A0001847064B002BF5D0184700BF0000000091
:1001B000200840000400402020084000000000000B
:1001C00008B5014B984708BDF9024000FEE7000062
:1001D00008B5104B104A9A4209D00E4B0E4A03E064
:1001E00011681960043304320C498B42F8D30C4B6C
:1001F00002E000221A6004330A4A9342F9D30A4A01
:100200000A4B23F07F039360094B9847094B9847AB
:10021000FEE700BF00004020200840000000402012
:10022000000040204800402000ED00E000004000B9
:100230000D074000F1064000194A136F23F0010337
:100240001367536F23F00103536701235360154B6A
:10025000196F21F002011967596F21F002015967E6
:1002600002215960116F41F400211167516F21F48F
:10027000002151674FF4002151600B49D1F814213E
:1002800042F48052C1F814211A6F22F480521A6786
:100290005A6F22F480525A674FF480525A60704766
:1002A000000E0E4000100E4000800840044B9B6979
:1002B000002B03DB4FF00042014B1A61704700BF77
:1002C00000060E4008B5064B9847064B9847064B6C
:1002D0009847024605490648064B984708BD00BFA7
:1002E000AD02400039024000ED064000000002402F
:1002F0002C0040204D03400008B5054B9847054AA7
:10030000536843F400435360034B984708BD00BF54
:10031000D503400050180E40C5024000EFF3108393
:10032000036072B6BFF35F8F7047BFF35F8F0368E0
:1003300083F31088704708B5436903B1984708BD37
:1003400008B5836903B1984708BD000038B5044675
:100350000D46002818BF002914BF012000203322B9
:100360000649074B984729462046064B9847064BB7
:100370002360064B6360002038BD00BF5407400077
:10038000CD034000410540003703400041034000D9
:1003900010B504464A220949003018BF0120084B15
:1003A00098472046074B984720B92046064B984768
:1003B000002010BD6FF0100010BD00BF54074000BA
:1003C000CD034000BD0640007906400000B900BEE4
:1003D0007047000000B583B001A80E4B98470E4A45
:1003E000D2F8883043F47003C2F88830BFF34F8FDF
:1003F000BFF36F8F01A8094B9847094A136823F48C
:10040000706343F4C0631360064B984703B05DF814
:1004100004FB00BF1D03400000ED00E02B03400083
:10042000000C0E40C50440000E490A6A22F0020288
:100430000D4B13430B620B4B9B6E13F0010FFAD065
:10044000084B196A094A0A431A62996A084A0A401B
:100450009A62084A9A62034B9B6E13F0020FFAD01D
:10046000704700BF00060E40013E37000000370114
:10047000FFFF00F8013F1820114A136B23F07003AF
:1004800013630F4B9B6E13F0080FFAD00C4A136BDB
:1004900023F4407343F480731363094B9B6E13F092
:1004A000080FFAD0064A136B23F0030343F002034C
:1004B0001363034B9B6E13F0080FFAD0704700BF15
:1004C00000060E4008B5024B9847024B984708BDFE
:1004D000290440007904400000230BB1002070473C
:1004E000C3EB03118A0006498A58824202D00133C5
:1004F000DBB2F2E7C3EB03139A00084610447047DF
:100500006C074000034B984200D07047024B1960C3
:10051000FBE700BF000002401C00402008B5036953
:10052000DB6913B1036803B1984708BD08B5024BF6
:100530001868024B984708BD1C0040201D0540006C
:10054000F8B506460C46081C18BF012040F271128F
:100550004449454B98472046444B984705463461EB
:1005600083682360C368E3670369C4F88030436924
:10057000E3658369A366C369C4F8C030036AE366B0
:10058000436AC4F82C34836AC4F84C34002319E05D
:100590002F6B180107EB000E3A5CDEF804101032E6
:1005A0005201A1503A5CDEF80C10103204EB4212FA
:1005B00051603A5CDEF8081004EB4212C2F80C12EB
:1005C00001335BB2EA6A9342E2D3002314E0A96BE1
:1005D00003EB4300820001EB020E885CDEF804703E
:1005E00004EB0010C0F838718A5CDEF80810133292
:1005F0001201A15001335BB26A6B9342E7D33146DB
:1006000020461B4B984795F90430002B0DDB5A0907
:1006100003F01F03012101FA03F32032154941F8C9
:100620002230BFF34F8FBFF36F8F95F90430002B4B
:1006300009DB5A0903F01F03012101FA03F36032B9
:100640000C4941F8223095F90430002B08DB590998
:1006500003F01F03012202FA03F3064A42F8213095
:100660000020F8BDE8074000CD034000D904400059
:100670000505400000E100E038B504464FF4D472AF
:100680000B49003018BF01200A4B984720690A4BDC
:100690009847002308E02169056B1A01AD5C01222F
:1006A000AA404A6001335BB2C26A9342F3D338BDB9
:1006B000E8074000CD034000D904400010B50446CF
:1006C00040F2D1120749003018BF0120064B98476D
:1006D0002369DB6813F00F0F01D0012010BD00204B
:1006E00010BD00BFE8074000CD0340000020704768
:1006F00008B5034B98470348034B9847FEE700BFF4
:10070000C10140002C0040209103400070B50D4E07
:100710000D4CA41BA4100025A54209D10B4E0C4C76
:1007200000F06EF8A41BA4100025A54205D170BDF1
:1007300056F8253098470135EEE756F825309847AA
:100740000135F2E70C0840000C0840000C0840009E
:10075000100840002E2E2F68616C2F7372632F6873
:10076000616C5F70776D2E63000000000000024036
:100770001F00000001000100010000000100000056
:10078000FF00000000000000040000000000000066
:10079000000000000000000004000000A807400066
:1007A00000000000200040200000000000020000C7
:1007B000060000000300000001000000000000002F
:1007C0000004000000020000020000000000000021
:1007D0000004000000020000030000000000000010
:1007E0000A000000050000002E2E2F68706C2F708C
:1007F000776D2F68706C5F70776D2E63000000005E
:10080000F8B500BFF8BC08BC9E46704779014000AF
:10081000F8B500BFF8BC08BC9E46704755014000C3
:0400000500400000B7
:00000001FF
